:1000000000200020E9710000BD720000C1720000F4
:10001000C5720000C9720000CD720000B973000003
:10002000B9730000B9730000B9730000D172000009
:10003000D5720000B9730000D9720000DD720000B3
:10004000E1720000753D0000E5720000E9720000F9
:10005000ED720000F1720000F5720000F97200000C
:10006000FD720000017300000573000009730000B9
:100070000D73000011730000157300001973000068
:100080001D73000021730000257300002973000018
:100090002D730000317300003573000039730000C8
:1000A0003D73000041730000457300004973000078
:1000B0004D73000051730000557300005973000028
:1000C0005D730000617300006573000069730000D8
:1000D0006D73000071730000757300007973000088
:1000E0007D73000081730000857300008973000038
:1000F0008D7300009173000095730000B9730000C8
:10010000B9730000B9730000B9730000B97300003F
:10011000B9730000B9730000B9730000B97300002F
:10012000997300009D730000A1730000A573000087
:10013000A9730000AD730000B1730000B573000037
:10014000FFFFFFFFFFFFFFFFFFFFFFFFFFFFFFFFBF
:10015000FFFFFFFFFFFFFFFFFFFFFFFFFFFFFFFFAF
:10016000FFFFFFFFFFFFFFFFFFFFFFFFFFFFFFFF9F
:10017000FFFFFFFFFFFFFFFFFFFFFFFFFFFFFFFF8F
:10018000FFFFFFFFFFFFFFFFFFFFFFFFFFFFFFFF7F
:1001900003329CA77F000000FFFFFFFFFFFFFFFF70
:1001A000FFFFFFFFFFFFFFFFFFFFFFFFFFFFFFFF5F
:1001B000FFFFFFFFFFFFFFFFFFFFFFFFFFFFFFFF4F
:1001C000FFFFFFFFFFFFFFFFFFFFFFFFFFFFFFFF3F
:1001D000FFFFFFFFFFFFFFFFFFFFFFFFFFFFFFFF2F
:1007F000FFFFFFFFFFFFFFFFFFFFFFFF4BA1DBAD91
:10080000DFF8B8285369D168CB1851688B4207D2FA
:100810009168D36841F82300D068401CD06002E0A2
:100820007FF003009061704710B4C0F3870000228E
:1008300000E0521CDFF884385C69A24209D21B69CF
:1008400013F8223003F0FF039842F2D10A6000202F
:1008500001E07FF0060010BC704710B50C0080B2BC
:1008600000F094FC2060002010BD10B4DFF84C387C
:100870005C69DA6814195A68944217D21A69121F0F
:100880001A6180B2800880B21A69126860F30702A8
:10089000186902601869007800F0FF0050EA012032
:1008A000196908605869401C586102E07FF0030034
:1008B000986110BC70471CB5040001A9200080B2EB
:1008C000FFF7B2FF00280AD06946200080B2FFF788
:1008D000C4FF0099200080B2FFF7C7FF07E0DFF8F0
:1008E000DC070069019950F82100000A0090009887
:1008F00016BD38B504000D00200080B2B0F5085FC9
:1009000005DB7FF00400DFF8B417886130E069464A
:10091000200080B2FFF788FF002819D1DFF89C077C
:100920000169009A11F8221001F0FF0151EA052136
:100930000069009A40F82210A4B2A40825F07F456F
:1009400055EA046555F000452800FFF759FF0FE010
:100950002900200080B2FFF788FFA4B2A40825F088
:100960007F4555EA046555F000452800FFF748FF2C
:1009700031BD02290FD3DFF844275160906000EBAE
:100980008100001F10610020D06000205061002015
:100990009061002010707047002803D0DFF81C27FA
:1009A00092680260002903D0DFF81007C068086071
:1009B000DFF8080780697047C0B2002804D1002022
:1009C000DFF8F816087007E0DFF8F0060021C160D4
:1009D0000021816101210170704710B400200021C5
:1009E0000AE09A6852F8212022F04042101802E0F2
:1009F000D207F6D5401C491CDFF8C0365A6991422F
:100A000007D29A6852F82120920F9407F0D5401C23
:100A1000F1E710BC704770B4002400E0641C1500BE
:100A2000EDB2AC4207DA05000E5DEDB2B542F5D18C
:100A30001C70012000E0002070BC704730B58BB006
:100A40000C00C168012902D10168022905D0C168E2
:100A5000002921D1016802291ED009A9DFF8D42874
:100A6000D2E90035C1E9003507A9DFF8CC28D2E981
:100A70000035C1E900350DF10203052209A94068DE
:100A8000C0B2FFF7C8FF00284BD007A89DF802109E
:100A9000405C2070012047E0C16800291DD1016839
:100AA00002291AD102A9DFF8942813680B6001A962
:100AB000DFF88C2813680B600DF10103032202A9F3
:100AC0004068C0B2FFF7A7FF00282AD001A89DF810
:100AD0000110405C2070012026E0C168012920D16E
:100AE000016802291DD005A9DFF85828D2E9003590
:100AF000C1E9003503A9DFF85028D2E90035C1E982
:100B000000356B46062205A94068C0B2FFF783FF97
:100B1000002806D003A89DF80010405C207001203A
:100B200002E00020207000200BB030BD30B587B04F
:100B30000C00C168012902D10168022905D0C168F1
:100B400000291ED1016802291BD0DFF8001809888E
:100B5000ADF80A10DFF8F8170988ADF808100DF1A4
:100B6000020302220DF10A014068C0B2FFF753FFF1
:100B700000284CD002A89DF80210405C2070012093
:100B800048E0C16800291ED1016802291BD1DFF8A5
:100B9000C4170988ADF80610DFF8BC170988ADF84E
:100BA00004100DF1010302220DF106014068C0B2EC
:100BB000FFF731FF00282AD001A89DF80110405C02
:100BC0002070012026E0C168012920D10168022996
:100BD0001DD005A9DFF88427D2E90035C1E9003529
:100BE00003A9DFF87C29D2E90035C1E900356B465D
:100BF000062205A94068C0B2FFF70DFF002806D005
:100C000003A89DF80010405C2070012002E0002045
:100C10002070002007B030BD70B598B005000C0002
:100C2000002000900BA8DFF83C19342201F024FCCE
:100C300007A8DFF83419102201F01EFC0020206004
:100C4000002D00F0BB80002C00F0B880E8680C2874
:100C500080F0B480A868032880F0B0802869042858
:100C600080F0AC802868002806D0022827D00FD357
:100C700004283BD068D39FE068681421484301F002
:100C80005BFCE96901F066FC01F0D0FC009093E0A8
:100C90006868801C07A9AA6851F822104843401CC4
:100CA0001421484301F048FCE96901F053FC5FF06E
:100CB0007C5101F0CDFC01F0B9FC00907CE069684A
:100CC000491C0BA8EA6850F822004143491C0091D6
:100CD000012028600098686069462800FFF79CFFA3
:100CE0000220286000980F30009065E0287E059073
:100CF000A8680290E868039000260DF1050102A89B
:100D0000FFF79CFE002803D09DF80500401E8619C1
:100D100001A902A8FFF70AFF002803D09DF80400EC
:100D2000401E86190220286069683000C0B2411850
:100D3000696069462800FFF76FFF04202860686833
:100D4000F6B2861B6E6037E06869002813D002286F
:100D500003D009D303281BD028E00020286069466F
:100D60002800FFF759FF21E001202860694628008C
:100D7000FFF752FF1AE0687E002802D002202860A8
:100D800001E00420286069462800FFF745FF0DE0D8
:100D900001202860686801212A69521C914048435B
:100DA000686069462800FFF737FFFFE703202860E7
:100DB000009819300090FFE70098206018B070BDCF
:100DC0002DE9F84306000F00307C002877D07068CA
:100DD000B16801F0AFFC38D27069401C7061706975
:100DE000F168884201D100207061B068716801F03B
:100DF000B3FC01F02FFD01F0FFFE04000D0070694F
:100E000001F0FCFE22002B0001F006FF04000D00A3
:100E1000F068401E01F0F2FE02000B0020002900E5
:100E200001F0CCFF02000B000020DFF8D01802F028
:100E30006DFC04000D00706801F00CFD22002B0019
:100E400001F0EAFE02F068FC9EE07069401E7061ED
:100E50007069F168884202D3F068401E7061706862
:100E6000B16801F079FC01F0F5FC01F0C5FE040069
:100E70000D00706901F0C2FE80468946F068401E90
:100E800001F0BCFE02000B002000290001F096FFDB
:100E900042464B4601F0C0FE02000B000020DFF886
:100EA0005C1802F033FC04000D00B06801F0D2FCC5
:100EB00022002B0001F0B0FE02F02EFC64E070680E
:100EC000B16801F037FC2FD27069401C7061706905
:100ED000F168884201D100207061706801F0BAFCAD
:100EE00080468946706901F089FE04000D00B068F3
:100EF000716802F045FC01F0ADFC22002B0001F00E
:100F00008BFE04000D00F068401E01F077FE020029
:100F10000B002000290001F051FF42464B4602F031
:100F20006FFC02F0F9FB2FE07069401E7061706980
:100F3000F168884202D3F068401E7061B06801F029
:100F400089FC80468946706901F058FE04000D0056
:100F50007068B16802F014FC01F07CFC22002B00E8
:100F600001F05AFE04000D00F068401E01F046FE3C
:100F700002000B002000290001F020FF42464B46F2
:100F800002F03EFC02F0C8FB3860BDE8F18310B50A
:100F900004000022200002F0F1FC10BD2DE9F84F02
:100FA00006000F009046D8F8000002F01BFD8146B5
:100FB000D8F8000002F016FD494601F0CBFA814650
:100FC000D8F8040002F00EFD8246D8F8040002F0C2
:100FD00009FD514601F0BEFA494601F039FB814650
:100FE000386802F0FFFC8246D8F8000002F0FAFCF4
:100FF000514601F0AFFA8246786802F0F3FC83466E
:10100000D8F8040002F0EEFC594601F0A3FA51466C
:1010100001F01EFB04002000494601F09DFB040086
:10102000786802F0DFFC8246D8F8000002F0DAFCB3
:10103000514601F08FFA8246386802F0D3FC07006F
:10104000D8F8040002F0CEFC390001F083FA010068
:10105000504602F095FB05002800494601F07CFB54
:101060000500C6E90045BDE8F18F38B504002168E8
:10107000206801F06FFA05006168606801F06AFAA3
:10108000290001F0E5FA01F0E5FB02F0BDFC02F0F9
:1010900043FB32BD70B50600306801F0DBFB020097
:1010A0000B0014001D00706801F0D4FB22002B001F
:1010B00002F024FD02F030FB70BD0000F80B0020B0
:1010C00080B58DF80100012269460DF1010002F0A2
:1010D000A9FD9DF8000002BD80B5010089B2090A92
:1010E0008DF802108DF80300022269460DF102000E
:1010F00002F098FD9DF800109DF8010050EA0120D3
:1011000080B202BDE0B50100090E8DF8041001A9FE
:101110000200120C4A700200120A8A70C87004227F
:10112000694601A802F07EFD69469DF800204878D6
:10113000000450EA02608A7850EA0220C978084325
:101140000EBD38B504000D0002F094FD2020FFF71D
:10115000B7FF200080B2FFF7BFFF02F090FD02F062
:1011600089FD2D20FFF7ACFFA4B2B4F5805442F204
:101170001500844203D22800FFF7C4FF03E02800D3
:1011800080B2FFF7A9FF02F07AFD31BD10B504006F
:10119000002002F06FFD2020FFF792FF200080B2B8
:1011A000FFF79AFF02F06BFD02F064FD6D20FFF780
:1011B00087FF0020FFF784FFA4B2B4F5805442F209
:1011C0001500844204D20020FFF79CFF040003E0D6
:1011D0000020FFF781FF040002F051FD200010BD48
:1011E00070B504000D00032D1ED202F043FD202037
:1011F000FFF766FF42F26C00FFF76EFF02F03FFD63
:101200000026AE4237D202F035FD6D20FFF758FFC1
:101210000020FFF755FF0020FFF774FF44F8260079
:1012200002F02DFD761CECE702F024FD5F20FFF7B5
:1012300047FF002603E00020FFF742FF761C062E42
:10124000F9D3002605E00020FFF75CFF44F82600F4
:10125000761CA81E8642F6D35FF04430FFF752FF9B
:1012600044F82600761C5FF04430FFF74BFF44F84B
:10127000260002F004FD70BD80B5DFF8F426127878
:10128000012A03D180B2FFF734FB02E080B2FFF7FE
:1012900058FF01BD80B5DFF8D8160978012903D1C0
:1012A00080B2FFF708FB02E080B2FFF76FFF02BDDC
:1012B00010B59CB06846DFF8BC16702201F0DCF86F
:1012C000DFF8AC060021C16000214161002181618D
:1012D0000021017002F0D3FC002409E0684600EB15
:1012E000C4004168684630F83400FFF7C5FF641C4D
:1012F0000E2CF3D340F20440FFF7CCFF45F201512E
:10130000884204D10120DFF8701608700FE045F222
:101310000251884204D10120DFF85C16087006E013
:10132000B0F5AA4F03D10020DFF84C1608701CB0AE
:1013300010BD00007C72000084720000B4720000D6
:10134000B87200008C720000947200004E260000FB
:1013500032270000162C0000BA2D00009C720000FD
:1013600038B504000D004FF40050FFF793FFEDB2C5
:10137000012D0DD1A10603D530F0200034F020045A
:10138000210303D530F4002034F4002404430DE09D
:10139000A10603D550F0200034F02004210303D52A
:1013A00050F4002034F4002430EA040421004FF407
:1013B0000050FFF761FF31BD80B550EA81000100A8
:1013C00042F2F020FFF758FF01BD10B504004FF4C2
:1013D0000050FFF75FFF010031F020012078002866
:1013E00001D151F020014FF40050FFF745FF4FF4B9
:1013F0000650FFF74FFF6178012901D150F001003D
:10140000A178012901D150F01000E178012901D122
:1014100050F004002179012901D150F02000617AB7
:10142000012901D150F48070A17A012901D150F035
:101430000200E17A012901D150F00800217B012945
:1014400001D150F0400001004FF40650FFF714FFA7
:101450000021A079002801D151F002016079002813
:1014600001D151F00101E079012801D151F00401CD
:1014700042F25000FFF700FF10BD10B5040014F158
:10148000100000F029F814F1500000F06FF820006F
:1014900000F005F814F11C0000F09CF810BD10B528
:1014A0000400216842F25010FFF7E6FE616842F244
:1014B0005810FFF7E1FEA16842F25410FFF7DCFE7E
:1014C000E16842F25C10FFF7D7FE5FF4803142F230
:1014D0000C00FFF7D1FE10BD80B500210268012A83
:1014E00001D151F480514268012A01D151F001012A
:1014F0008068400010F4FF70014342F21000FFF7D3
:10150000BBFE01BD7FB504000D0016000B2D01D3FD
:10151000F82515E0032D02D30835ED0010E06846EC
:10152000DFF85814102200F0A7FF052E07D26946F5
:101530000520454301EB0500855DED0000E0F82541
:101540003543002C05D0290042F2F400FFF794FE49
:1015500004E0290042F2F800FFF78EFE7FBD000094
:10156000A4720000AC7000005072000010B50400BE
:10157000002C02D17FF002002BE02069032802D268
:101580007FF0010025E020690C2802D37FF00100E4
:101590001FE06069062802D37FF0010019E00021F6
:1015A0002068014342F2FC00FFF766FEA168490192
:1015B00060680143207B012801D151F0100142F203
:1015C000F000FFF759FE626921690020FFF79AFFDA
:1015D000002010BD10B504002068022814D1216A33
:1015E00042F23000FFF748FE616A42F23C00FFF72A
:1015F00043FEA16A42F23800FFF73EFEE16A42F282
:101600003400FFF739FE26E0206803281ED1A168C8
:1016100042F21800FFF730FEE16842F21C00FFF7CB
:101620002BFE216942F22000FFF726FE616942F29B
:101630002800FFF721FEA16942F22400FFF71CFEFB
:10164000E16942F22C00FFF717FE04E0216B42F241
:101650004800FFF711FE00212079012801D151F047
:1016600020016079012801D151F01001206851EA70
:10167000400142F21400FFF7FFFD10BD80B500F0FD
:1016800006F8010042F23000FFF7F6FD01BD70B52B
:1016900005000E001A24DFF8E0020078012800D1CE
:1016A0001E243000002102F09FFB01D1002022E027
:1016B00001200021220002F0A5FB02F0B5FB290069
:1016C00000F048FF310001F047F85FF07C5100F076
:1016D000BFFF00F0ABFF1A2C02D1DFF80C1901E0BC
:1016E0007FF07F41814206D21A2C02D1DFF8F80840
:1016F00001E07FF07F4070BD00000000000024404A
:1017000010B50400200000F005F814F1200000F0EE
:101710005CF810BD10B50400002061688901A06864
:1017200051EA0011E06851EAC001606951EA8001A4
:10173000207E002801D151F00101607E002801D1F6
:1017400051F002012068002810D142F22810FFF762
:1017500093FDA18BC9B2608B00F019F8216951F09B
:10176000200142F22410FFF787FD0FE042F234100F
:10177000FFF782FDA18BC9B2608B00F017F82169D9
:1017800051F0200142F23010FFF776FD10BD80B518
:1017900011F03F010005000DC9B280B250EA0130DE
:1017A000010042F22010FFF767FD01BD80B511F086
:1017B0003F010005000DC9B280B250EA01300100BE
:1017C00042F22C10FFF758FD01BD10B504000021B6
:1017D000207E002801D151F00201607E002801D155
:1017E00051F001012069042802D151F0040102E006
:1017F000206951EAC001E06851EA4011A06851EA4D
:101800008021606851EA40312068002809D142F205
:10181000EC00FFF731FD616942F2E400FFF72CFDB7
:1018200008E042F2E800FFF727FD616942F2E000BC
:10183000FFF722FD10BD10B50400200000F04AF8AB
:1018400014F10C0000F054F814F1200000F098F8A6
:1018500014F1280000F0BDF814F1340000F0A7F8EE
:1018600010BD80B50021002809D0022813D00CD368
:1018700004281CD015D3062825D01ED328E042F218
:101880007400FFF707FD010022E04FF40250FFF75C
:1018900001FD01001CE042F28400FFF7FBFC0100A7
:1018A00016E042F27800FFF7F5FC010010E042F28A
:1018B0007C00FFF7EFFC01000AE042F2C810FFF7DE
:1018C000E9FC010004E04FF40750FFF7E3FC0100DE
:1018D000080002BD80B500210168426851EA02217A
:1018E000806851EA004142F2A810FFF7C5FC01BD33
:1018F00038B5040042F244052800FFF7CBFC010094
:1019000011F08001E0680143207C012801D151F0F1
:101910001001607C012801D151F04001606851EA5A
:101920000021206851EA0031A06851EA8031280086
:10193000FFF7A2FCA07C002804D001215FF48030D6
:10194000FFF70EFD31BD70B504000D0042F2A81680
:101950003000FFF79FFCDFF8D8160840044354EA34
:10196000052421003000FFF787FC70BD0000000057
:10197000F80B0020D06F0000200C002060720000E7
:1019800010B50400218842F2A800FFF775FC6188B9
:1019900042F2AC00FFF770FCA18842F2B000FFF702
:1019A0006BFCE18842F2B400FFF766FC10BD80B525
:1019B0000021027A012A01D151F00101426851EA65
:1019C0000211006851EAC01142F2C410FFF754FC42
:1019D00001BD70B50400002542F244063000FFF757
:1019E00059FC01006068032805D151F080013000E6
:1019F000FFF742FC07E031F080013000FFF73CFCCC
:101A0000606855EA0055206855EA0015207A0128DB
:101A100001D155F00105290042F2D000FFF72CFC5E
:101A200070BD70B5040042F2080500212800FFF7E0
:101A300023FC42F2D8163000FFF72CFC010011F015
:101A40003F01606851EA4021A06851EA80113000EE
:101A5000FFF712FC2169090442F2E010FFF70CFCC9
:101A600000212078012801D151F40061E06851EA99
:101A700040312800FFF700FC70BD80B50022C9B2DC
:101A8000012901D152F4006252EA4032110042F2BF
:101A90000800FFF7F1FB01BD80B54FF40850FFF7D8
:101AA000F9FB000C02BDF8B5060042F20804200064
:101AB000FFF7F0FB050000212000FFF7DDFB42F2FD
:101AC000D8173800FFF7E6FB01008909890151F0BA
:101AD0000801306801433800FFF7CEFBF079002899
:101AE00009D0002142F20400FFF7C6FB002142F2B8
:101AF0006400FFF7C1FB00213079012801D151F0CA
:101B00000101B06851EA002142F20400FFF7B4FB82
:101B100029002000FFF7B0FBF1BD80B501000429CA
:101B200006D2012010FA01F14FF48660FFF7A4FB02
:101B300001BD70B504000D0016000BE0210042F25B
:101B4000D410FFF799FB641C296842F27000FFF77C
:101B500093FB2D1D3000461E0028EFD170BD10B53F
:101B600004002068002805D0022815D00BD30328D4
:101B70001BD023E0A068616851EA004142F2CC101A
:101B8000FFF77AFB1AE0A068616851EA004142F26F
:101B9000E810FFF771FB11E0A068616851EA0041AD
:101BA00042F2D010FFF768FB08E0A068616851EAD4
:101BB000004142F2E410FFF75FFBFFE7207B0128C2
:101BC00004D1A26821696068FFF7B3FF10BD80B53A
:101BD000010042F25400FFF74FFB01BD10B50400B5
:101BE000616B89B240F60800FFF746FB606BC0F3FB
:101BF000034140F60C00FFF73FFB616A89B24FF4E6
:101C00000160FFF739FB606AC0F3034140F614003E
:101C1000FFF732FBA16B89B240F61800FFF72CFBEF
:101C2000A06BC0F3034140F61C00FFF725FBA16A3F
:101C300089B24FF40260FFF71FFBA06AC0F30341B3
:101C400040F62400FFF718FBE16B89B240F628004C
:101C5000FFF712FBE06BC0F3034140F62C00FFF7E7
:101C60000BFBE16A89B24FF40360FFF705FBE06A02
:101C7000C0F3034140F63400FFF7FEFA216C89B24D
:101C800040F63800FFF7F8FA206CC0F3034140F645
:101C90003C00FFF7F1FA216B89B24FF40460FFF7C3
:101CA000EBFA206BC0F3034140F64400FFF7E4FA7F
:101CB000012140F61C20FFF7DFFA0021207910F007
:101CC00003000143A068800010F00C000143E068AD
:101CD000000110F0300001432069800110F0C000C5
:101CE00001436069000210F440700143A069800262
:101CF00010F440600143E069000310F440500143D8
:101D0000206A800310F44040014340F60400FFF7CE
:101D1000B3FA002194F84400012801D151F00101E7
:101D2000206851EA40014FF40060FFF7A5FA10BDAA
:101D300010B504004FF40060FFF7ACFA4FF6FE71E7
:101D40000840E4B2012C01D150F0010080B2010042
:101D50004FF40060FFF790FA10BD38B505004FF45E
:101D60002160FFF797FA0400E87C012812D154F0B3
:101D700004044CF6143140F60C20FFF77DFA2100E4
:101D80004FF42160FFF778FA4FF42160FFF782FAF1
:101D90004005F9D5287C01281CD154F002044CF6EA
:101DA000143140F60C20FFF767FA21004FF4216050
:101DB000FFF762FA4FF42160FFF76CFA8005F9D55E
:101DC000687C012803D1012000F050F802E00020D7
:101DD00000F04CF8A87C012812D154F001044CF614
:101DE000143140F60C20FFF747FA21004FF4216030
:101DF000FFF742FA4FF42160FFF74CFAC005F9D51E
:101E0000297A11F03F01287A10F03F000143E86879
:101E1000800110F4707001434FF48160FFF72CFAD9
:101E20000A2001F039FF2968686851EA800140F210
:101E30001440FFF721FAE87C002801D134F00404B3
:101E4000287C002801D134F00204A87C002801D1AC
:101E5000640864004CF6143140F60C20FFF70CFACD
:101E600021004FF42160FFF707FA31BD70B504007F
:101E70004FF48260FFF70EFA0500C5F34020C5F36A
:101E8000002105F0FF05490251EA00210D4355F0FC
:101E900020014FF48260FFF7EFF942F2BC063000F8
:101EA000FFF7F8F90100E4B2012C0BD131F0040185
:101EB0003000FFF7E1F94FF42160FFF7EBF98005FF
:101EC0000BD4F8E751F004013000FFF7D5F94FF4D7
:101ED0002160FFF7DFF98005F9D535F020052900ED
:101EE0004FF48260FFF7C8F970BD70B50C001500A3
:101EF00043F20806012801D143F20C06300080B2FB
:101F0000FFF7C8F9EDB2012D01D1044301E030EA39
:101F100004042100300080B2FFF7AEF970BD80B537
:101F2000002804D143F20800FFF7B4F903E043F2BC
:101F30000C00FFF7AFF902BD80B5010043F20400C9
:101F4000FFF79AF901BD10B50C00002802D143F249
:101F5000100001E043F2140080B2FFF79BF9204229
:101F600001D0012000E0002010BD10B50400206861
:101F700000F00EF8606800F011F8A06800F014F8A6
:101F8000E06800F017F821691420FFF775F910BD1B
:101F900080B501000020FFF76FF901BD80B5010099
:101FA0000420FFF769F901BD80B501000C20FFF79F
:101FB00063F901BD80B501000820FFF75DF901BD9F
:101FC00080B5010042F21810FFF756F901BD10B5B7
:101FD00042F21C1400212000FFF74EF901212000DD
:101FE000FFF74AF910BD0000FFFF0F0038B50400ED
:101FF0000025FFE76D1C4FF48060FFF74BF944F2BA
:102000004411884205D0012CF4DBAC42F2D2280006
:1020100032BDFCE780B501F03BFEC82001F03CFE7C
:1020200001F032FE4FF4FA7001F036FE01BD0000FF
:10203000C0E0FFFF2DE9F847C1B004000D00002605
:102040000020002038A8DFF8E013242200F014FA62
:10205000002C02D17FF00200DDE16068002101F078
:10206000C3FE02D17FF00100D5E16069082802D3E8
:102070007FF00100CFE16069082802D17FF0010004
:10208000C9E1002D02D17FF00200C4E1E068E4491B
:1020900001F0F6FE00D8012638A8616950F82170D9
:1020A000606800F0D7FB0022DFF8803300F0B4FD59
:1020B00080468946380000F0A1FD02000B00404632
:1020C000494600F07BFE01F027FBDFF8641300F0C7
:1020D00031FB16D201275FF00108DFF8581300F03A
:1020E0003BFBDFF8541300F035FA5FF0804100F05D
:1020F00031FA00F09BFA82461AF1010A5FEA5A0AA5
:102100004DE0DFF8381300F015FB16D201275FF021
:102110000008DFF82C1300F01FFBDFF81C1300F0A1
:1021200019FA5FF0804100F015FA00F07FFA82465C
:102130001AF1010A5FEA5A0A31E0DFF8081300F0E9
:10214000F9FA16D200275FF00108DFF8FC1200F060
:1021500003FBDFF8E41200F0FDF95FF0804100F0CE
:10216000F9F900F063FA82461AF1010A5FEA5A0AA5
:1021700015E000275FF00008DFF8D01200F0ECFA5D
:10218000DFF8B41200F0E6F95FF0804100F0E2F908
:1021900000F04CFA82461AF1010A5FEA5A0ABAF5CF
:1021A000006F01D340F2FF7A0120FFF7B8FE8146AD
:1021B000012202210120FFF798FE00219948FFF734
:1021C000CFF801208DF8180001208DF81A000120A9
:1021D0008DF8190000208DF8240000208DF82300D0
:1021E00000208DF8210000208DF8220000208DF8BD
:1021F0001C0000208DF81B0000208DF81D00002021
:102200008DF81E0000208DF81F0006A8FFF7DDF8EE
:102210002097CDF8848007202290202214F110010D
:1022200030AF380000F018F901201C9001201D90FB
:102230004FF400701E904FF410601F900220239006
:1022400001208DF8900001208DF89100A168206890
:10225000FFF71DFA2B90CDF8B0A000202D900020A4
:102260002E901CA8FFF709F914200D9024200C9043
:1022700001200E90082114A8FEF789FE032011907A
:10228000F6B2002E01D0002000E001201290606B19
:102290001090206B0F9001208DF84C0000208DF8DD
:1022A0004D0001208DF84E000C2214F1380116AEBD
:1022B000300000F0D1F80C21002219AE300001F0FE
:1022C0005DFB0CA8FFF7B7FA0121DFF88401FFF7E7
:1022D00047F801214FF48140FFF742F8192001F03F
:1022E000DBFC01214FF40140FFF73AF80221012005
:1022F000FFF729FE0028F9D04CF2801600213000AB
:10230000FFF72EF80220FFF717FE0320FFF7A9FAC8
:1023100002900420FFF7A5FA039001210120FFF7A6
:1023200012FB01214FF48140FFF71AF8192001F048
:10233000B3FC01214FF40140FFF712F80221012004
:10234000FFF701FE0028F9D000213000FFF708F860
:102350000220FFF7F1FD0320FFF783FA009004202D
:10236000FFF77FFA01900298800304D50299DFF805
:10237000E400014302910398800304D50399DFF838
:10238000D400014303910098800304D50099DFF83D
:10239000C400014300910198800304D50199DFF83E
:1023A000B4000143019101984042019000984042DD
:1023B000009001984042019003984042039002AA85
:1023C00069460AA8FEF7EAFDDDE90A01CDE9040144
:1023D0000499606800F0BEF804900599606800F008
:1023E000B9F80590606C002804D1DDE90401C5E965
:1023F000000107E004A8FEF738FE286004A8FEF7F5
:1024000049FE68605FEA897004D40022022101203D
:10241000FFF76BFD002042B0BDE8F0870000000030
:102420000150C34BE0FF39008071000000809640EE
:10243000010020420000204200E0FF440100484328
:10244000000048430100A0430000A0430000C8442E
:10245000400E11000000FCFF62B38B0708D0521E33
:1024600011F8013B00F8013B00F024808B07F6D106
:10247000830740F0208000BF103A07D330B4B1E8A2
:102480003810103AA0E83810F9D230BC530724BFF6
:10249000B1E80810A0E8081044BF51F8043B40F828
:1024A000043BD20724BF31F8022B20F8022B44BF93
:1024B0000B7803707047121F17D35B0009D151F8D6
:1024C000043B20F8023B1B0C121F20F8023BF6D203
:1024D0000BE051F8043B00F8013B1B0A20F8023BDB
:1024E0001B0C121F00F8013BF3D238BF121D521E05
:1024F00024BF11F8013B00F8013BF8D8704730B415
:10250000002513E050F8042BD30744BFA9F10103C1
:102510009A18091F042942F8045BFAD213468C0763
:1025200044BF15809B1CC90748BF1D7050F8041B91
:102530000029E7D130BC704700280AD0B0FA80F1FA
:102540008840D1F19D01C905020672F1004241EBBC
:1025500010207047FF2212EAD05C1DBF12EAD1534F
:10256000944593422BE09C44D30780EA01021A4031
:1025700043EA002043EA0121A1FB0030C04238BFFA
:1025800040007CF17F010BDBFE294ADA5B0842EA5E
:10259000C15153EA006373F1004C51EB10207047B6
:1025A000D1F1080CDCF120012FDB5B0810FA01F1FE
:1025B0000B4320FA0CF073F10041504170479445F1
:1025C0001CBF02EAD153934280EA010202F00042AA
:1025D0001DD0400019D0490017D05BB9634514D015
:1025E0000902B1FA81F39940BCEB030CC00140F041
:1025F0000040C1E70002B0FA80FC10FA0CF0B3EB27
:102600000C0CC90141F00041B6E7100070474000D2
:102610000AD0490008D010F1807F94BF11F1807F6B
:1026200002E042F0FF407047D043704700180CD2E0
:10263000010E7F3909D4D1F11F015DBFC00140F007
:102640000040C8406FF00000704700207047070B43
:1026500090EA010F41F19A8081F00041431A4FF056
:1026600000423EBF5340C01AC91800BFD3095FEAF9
:10267000D05C13EB400F34BFB3EB410F40E07CEB79
:10268000D1530CD342EA012122D8D1EB402009D307
:10269000400A28BF5FEA500140EBCC507047401A17
:1026A00015D04002B0FA80F2521C9040400A4FEA26
:1026B0003C23B3EB026384BF00EB730007E040F4FC
:1026C00000001A16DB07C2F10102D0401843704720
:1026D000182BFCDC31FA03F202FA03F3591A38BF63
:1026E00042F00102D2EB40203CBF4000ACF1010CB3
:1026F0005FEACC5CC20572F100414CEB50207047A0
:1027000013EB400F0FD2C94209D0ACEBD153022BCF
:1027100003DB4902172BDDDD70479143401AC042AD
:10272000D5D10020704713EB410FD0D36FF00000DC
:1027300070470A054FF0807C1CEB400F94BF1CEBE8
:10274000410F05E040EA010C1CEB0C0F01D288425E
:10275000704718BF8142704710B5FF2313EAD05469
:102760001DBF13EAD1529C429A4239E0A41ADA07FB
:1027700080EA0103134042EA012142EA0020421AA2
:102780003CBF641E01EB4202090AB2FBF1FE01FBF1
:102790001E221202B2FBF1F001FB10226EF30F2099
:1027A0001202B2FBF1FE4EEA00207F3406DDFE2C61
:1027B00024DA53EA500050EBC45010BDD4F10204A7
:1027C00001FB1E2240F08071192C1DDC21FA04F05F
:1027D000C4F12004A140114371F10042584110BDE1
:1027E0009C421ABF03EAD1529A420FE080EA010EDE
:1027F0000EF00043400004D0490016D143F0FF40E2
:1028000010BD490008BFD343180010BD9C4205D13C
:10281000D21AF7D001F00041484010BD4A0212BF61
:102820000846484000F0004010BD4AB90902B1FA1C
:1028300081F2914044B1A418C00140F000409EE7ED
:10284000C90141F0004152420002B0FA80F4A040B8
:10285000141B94E7C0F3C75181B1FF2906D0C11002
:10286000400721F0E04101F16051704741020CBF87
:1028700040F4E0016FF000410020704700F000419B
:1028800000020AD0B0FA80FC00FA0CF001F16051AD
:10289000A1EB0C5101EBD021400570472DE9F04D23
:1028A00006460F4678004015401C84B090460AD179
:1028B00048004015401C01D1090301D1F80F29D16E
:1028C000304639464AE127F00041B1F5801F26F035
:1028D00000000CD20022002908BF002800920ED070
:1028E0006A46394601F0DEFA06460F4607E09D4D7E
:1028F0009D4A3D4002EB11509C4F00902F4326F023
:10290000000037F0004104BF0028994900F02681FB
:10291000F80F06D0AFF300804FF0FF306FF00041AA
:102920001CE13900304605D500224FF00043101A53
:1029300063EB01018F4B904A002B05D500244FF02B
:102940000045A21A65EB030399422ADC01DB9042A1
:1029500027D239464800400D00F1010211D0002A6B
:102960000FDD40F2FF70824206DB844907F000432E
:10297000002643EA010711E06FF31E5141EA0257B6
:102980000CE026F0000037F0004108BF002805D019
:102990000122394601F0BEFA06460F460098401E55
:1029A00000900020764932463B4600F029FF04465D
:1029B0000D460020734932463B4600F021FF024697
:1029C0000B462046294600F0F9F906460F463246E6
:1029D0003B4600F021F982468B466B486B495246D4
:1029E0005B4600F019F96A4A6A4B00F009FF52464B
:1029F0005B4600F011F9684A684B00F001FF52464F
:102A00005B4600F009F9664A664B00F0F9FE524653
:102A10005B4600F001F9644A644B00F0F1FE524657
:102A20005B4600F0F9F8624A624B00F0E9FE52465C
:102A30005B4600F0F1F8604A604B00F0E1FE524660
:102A40005B4600F0E9F802460B462046294601F0B5
:102A5000FFFA32463B4600F0DFF8064600980F4684
:102A600001F068FBB8F1000F82468B4619D154483B
:102A7000544952465B4600F0CFF832463B4601F0DF
:102A8000E7FA22462B4600F0BBFE04460D464FF007
:102A900040404D4952465B4600F0BEF822462B4668
:102AA0005AE036DD0020494922462B4600F0B4F8B2
:102AB000CDE902012246464846492B4600F0ACF8D3
:102AC000CDE900015246444844495B4600F0A4F871
:102AD00004460D4630463946414A3C4B00F09CF8CE
:102AE00002460B462046294601F0B2FADDE90023F2
:102AF00000F086FEDDE9022300F082FE06460F4666
:102B00000020384952465B4600F086F832463B4684
:102B100022E04FF0C040344922462B4600F07CF8BA
:102B2000CDE900012246314831492B4600F074F8C6
:102B300004460D462F482C4932463B4600F06CF8BF
:102B400002460B462046294601F082FADDE90023C1
:102B500000F056FE52465B4600F052FE04B0BDE85F
:102B6000F08D0000FFFF0F8002FCFFFF0000E03F40
:102B70000000F0FF9EA0E63FCD3B7F660000F07FA7
:102B80000000F0BF0000F03FF7DE29BFD8F8C23FD9
:102B9000F4B3FECC1A99C33F62CB68D96F46C73FE6
:102BA000C6C912DAC471CC3F4AE98A942449D23F9B
:102BB000F75F97999999D93FBC5555555555E53FBC
:102BC0009EBC9AF71C7D7F3E422EE63F7BCBDB3FCF
:102BD000ABA6320EE526553E7CC4BC7FDE27743E94
:102BE0000EE526151344D33F4715F73F44DF5DF844
:102BF0000BAE543EFE822B6501224FE6014648B1E2
:102C0000B0FA80F18840C91CC1F58461090501EB67
:102C1000D02140057047090BB0B581EA030C0CF0D8
:102C2000004C40F2FF7515EA11541DBF15EA135709
:102C3000AC42AF4239E0E41923EA455343F4801330
:102C4000C90241F0004141EA505EC7021100A7FBF2
:102C5000020200284FF00000EEFB01204FF00001BF
:102C6000E3FB072118BF42F001024018002149414F
:102C7000E3FB0E01A4F580640F0302D25200404131
:102C8000494154F101046CDD470872F1004250F1F2
:102C9000000051EB0451A1F580115CBF41EA0C0129
:102CA000B0BD4CEA05510020B0BD05EA1357AC4257
:102CB00014BFAF4241E050EA410E1CBF52EA430E3E
:102CC00002E061460020B0BD24423C441BD15FEAD3
:102CD000070EF6D0090302BF01460020AEF1140E24
:102CE000B1FA81F7AEEB070401FA07FE0C37C7F122
:102CF000200100FA07F7C8404EEA000E23EA4553C8
:102D000043F48013A2E733F00043B3FA83F704BF20
:102D1000B2FA82FE77440B3FE41BB7F1200E2FBFBF
:102D200002FA0EF3BB40C7F1200E22FA0EFE38BFA6
:102D300043EA0E03BA40641C82E750EA410E14BF16
:102D400052EA430E6FF000014FF4001717EB430FE8
:102D50008ABF194617EB410FB5E74CEA0551002031
:102D6000B0BDD4F10104B4F120070FDAC4F120079B
:102D7000520828BF42F0010210FA07F501FA07F7DE
:102D8000E1BF2A43E0403843E1400FE0352C98DCB6
:102D9000C7F1200452EA400220FA07F218BF42F0BD
:102DA000010231FA07F0A1400A43002172F100420A
:102DB00050F1000051EB0C01B0BD0F0AF0B540F22C
:102DC000FF7581EA030C0CF0004C15EA11541DBF8D
:102DD00015EA1357AC42AF42E5E0BC41C1F3130121
:102DE000C3F31303801A994143F4801304D2641E81
:102DF0004000494180185941C90241EA5051B1FB94
:102E0000F3F603FB1611A2FB0675D7EBC020A94110
:102E100002D2761E80185941C90241EA5051B1FBD5
:102E2000F3FE03FB1E11A2FB0E75D7EBC020A941D8
:102E300003D2AEF1010E80185941890241EA905146
:102E4000760546EA8E2EB1FBF3F603FB1611A2FBC4
:102E50000675D7EB8020A94102D2761E8018594111
:102E6000C90241EA50514EEA060EB1FBF3F603FBEC
:102E70001611A2FB0675D7EBC020A94102D2761E1F
:102E800080185941C90241EA5051B1FBF3F703FBE5
:102E90001711A2FB0735D3EBC020A94167F100074A
:102EA0000CBF004247F0010766F3D5274FEA1E31F9
:102EB000B80814F5806412DDBD0775F1004250EBCF
:102EC0000E5051EB045111F5801F5CBF41EA0C011B
:102ED000F0BD4CF07F6141F0E0410020F0BDBD0746
:102EE0006D0840EA0E5041F48011D4F10104B4F1B0
:102EF00020060ADAC4F120060200E04001FA06F3D7
:102F0000E1401843B24015430EE0342C13DCC6F107
:102F1000200445EA40056D0820FA06F2154321FA1F
:102F200006F0A1400D43002175F1004250F1000070
:102F300051EB0C01F0BD00205FEA0C01F0BDCFB9F0
:102F400092185B41B3FA83F704BFB2FA82F6BF1955
:102F50000B3FB7F120062FBF02FA06F3BB40C7F1C3
:102F6000200622FA06F638BF3343BA401CB1E419F2
:102F7000641E33E77F4231F00041B1FA81F404BFAF
:102F8000B0FA80F6A4190B3CB4F120062FBF00FA6A
:102F900006F1A140C4F1200620FA06F638BF3143FD
:102FA000A0403C1B1AE7AC421ABF05EA1357AF42D8
:102FB00012E050EA41061CBF52EA4306BFE750EA5E
:102FC0004107304661461CBF41EA0551F0BD52EA57
:102FD000430C08BFC143F0BD00204FF4001616EBB0
:102FE000410F98BF16EB430F08BF16EB410F24BFEC
:102FF000C14305E016EB430F0CBF61464CEA055197
:10300000F0BD00002DE9F04D8AB0129C14B1129C65
:103010000025256016461F4626F0000A37F00042BC
:1030200008BFBAF1000F14D004460D460020DFF8A7
:103030005C1622462B4601F08FF80AD0DFF85016B6
:1030400001F08AF809D178004015401C05D13903F8
:1030500003D10020DFF8341615E368004015401C4A
:103060000BD024F0000035F0004108BF002804D048
:1030700078004015401C40F0E58068004015401C79
:1030800004D1290302D020462946FCE278004015ED
:10309000401C04D1390302D030463946F3E27900AE
:1030A00001204915491C7CD03B46590051EADA7B86
:1030B0004FEA4A0104BF0029CDE90067324619D022
:1030C00040F23341A1EB5B51352904DB02F00002F1
:1030D00003F000430CE0202903DD2039CB408B4076
:1030E00000E001D1002203E00029C4BFCA408A40A9
:1030F000CDE900233B0008D500214FF0004B8A1B8F
:103100006BEB0303CDE9022301E0CDE90263DDE9C6
:103110000023002B05D500214FF000468A1A66EBEC
:103120000303DDE902AB9B450CBF92450020DDE9BE
:103130000023590041EAD2765100002E08BF002931
:1031400017D040F23441A1EB5651352904DB02F08F
:10315000000203F000430CE0202903DD2039CB40BE
:103160008B4000E001D1002203E00029C4BFCA4027
:103170008A40B0B1DDE90001002905D500264FF0F5
:10318000004B301A6BEB0101002B05D500264FF0E8
:10319000004BB21A6BEB0303994206BF904200202A
:1031A000012069004915491C07D12A0305D1EC0FFC
:1031B0001BD1FE0F42D0002065E279004915491C61
:1031C0001CD13A031AD125F00041B1F5801F24F03B
:1031D00000001ED20022002908BF002800921DD046
:1031E0006A46294600F05EFE18E0FE0F02D1002874
:1031F00025D01FE0002800F0468206E0002814BF1A
:10320000EC0F0024FE0F14D184B100204FF00041D8
:1032100039E2DFF8802402EB11500090FE0F009895
:1032200002D100280ADC01E0002807DD002000218F
:1032300029E21CB10020DFF8601424E20020DFF84E
:103240005C1420E2BB464FEA4B0151EADA714FEAC7
:103250004A0008BF00281CD040F23342A2EB515074
:10326000352804DB0AF0000A0BF0004B11E020289F
:1032700005DD20382BFA00F101FA00FB00E002D155
:103280004FF0000A05E00028C4BF2AFA00F101FA55
:1032900000FAE80F22D0390007D500224FF0004392
:1032A000921BBB41CDE9002301E0CDE900675946FF
:1032B0000029504605D500224FF00043101A63EB59
:1032C0000101DDE900238B4208BF824206D0AFF343
:1032D00000804FF0FF306FF00041D4E125F0004353
:1032E000B3F5801F24F000020DD20020002B08BF90
:1032F000002A009012D06A462046294600F0D2FDEE
:1033000004460D460AE0DFF88C03DFF8941300EB67
:1033100013500D40DFF88C3300901D43E80F08BFB9
:1033200000223DD0594650464B0043EAD07342003C
:10333000002B08BF002A25F0004517D040F2344C7E
:10334000ACEB5352352A04DB00F0000001F00041E1
:103350000CE0202A03DD203AD140914000E001D169
:10336000002003E0002AC4BFD0409040BBF1000F12
:1033700006D500224FF00043B2EB0A0A63EB0B0BB9
:10338000002905D500224FF00043101A63EB01011C
:103390008B4508BF824502D10021019101E0012245
:1033A00001920098012831D120462946BE4ABF4BE0
:1033B00000F0E2FE2AD24FF00008B449CDE90281C4
:1033C00029464800400D00F1010211D0002A0FDD0E
:1033D00040F2FF70824206DBB04905F00043002452
:1033E00043EA010531E06FF31E5141EA02552CE03A
:1033F00024F0000035F0004108BF002825D001224C
:10340000294600F087FD04460D461EE00020A8492D
:1034100022462B46FFF700FCDFF888B200225B460D
:1034200000F0EEF900F0C0FEA0F12008404600F0E8
:1034300081FE00229F4BFFF7EFFB00225B4600F06E
:10344000DFF9CDE902014FEA4818DDE90223204601
:10345000294600F0FDFD82468B46DDE90201224649
:103460002B4600F0CDF902460B4650465946FFF771
:10347000A5FCCDE90401DDE90423FFF7CDFBCDE98F
:1034800006AB04460D468C488C4922462B46FFF776
:10349000C3FB8B4A8B4B00F0B3F922462B46FFF758
:1034A000BBFB894A894B00F0ABF922462B46FFF75C
:1034B000B3FB874A874B00F0A3F922462B46FFF760
:1034C000ABFB854A854B00F09BF922462B46FFF764
:1034D000A3FB834A834B00F093F922462B46FFF768
:1034E0009BFB814A814B00F08BF9CDE90801DDE9B6
:1034F00002230020654900F0ABFD0B465A00520D37
:1035000002F1010C14D0BCF1000F11DD40F2FF728A
:10351000944507DB614A01F000404FF0000A40EAA1
:10352000020B10E06FF31E5343EA0C5B82460AE085
:1035300020F0000231F000430EBF002A012200F00B
:10354000E9FC82468B46DDE9080122462B46FFF75F
:1035500063FBDDE9062300F07BFD52465B4600F08D
:103560004FF9DDE90423FFF757FBDDE9062300F0FF
:1035700047F982460098414C7C4404F580748B46A0
:1035800004EB080500F0D6FDD5E9002300F038F97A
:10359000CDE902015246564856495B46FFF73CFBCF
:1035A000DDE9022300F02CF932463B46FFF734FBFD
:1035B0000022514B00F0E0FD62D301224F4B00F09E
:1035C00011FE54D9CA0F1ABF00224D4B354B00F0E3
:1035D00017F900F0E9FD044632463B46504659468D
:1035E000FFF71AFB82468B46D5E90201D5E9042391
:1035F00000F006F932463B46FFF70EFB414A424BCC
:10360000FFF70AFB52465B4600F0FAF805468B4688
:10361000DDE9020132463B46FFF7FEFA06460F4659
:10362000204600F087FD02460B463046394600F042
:103630000FFD344A344BFFF7EFFA2A465B4600F0A1
:10364000DFF8129A0AB114600024009400220F4B94
:1036500000F0E0FD20F0000431F0004508BF002C30
:103660000ED04A005215521C03D10B0301D1002089
:103670000A49019A3AB181F0004104E0AC2B000004
:1036800000200021F5E70AB0BDE8F08D0000F03F12
:103690000000F0BF02FCFFFF0000F0FF0000F07F21
:1036A000FFFF0F800000E03FCD3B7F669EA0E63F1E
:1036B000000050400000903FF7DE29BFD8F8C23F1D
:1036C000F4B3FECC1A99C33F62CB68D96F46C73FAB
:1036D000C6C912DAC471CC3F4AE98A942449D23F60
:1036E000F75F97999999D93FBC5555555555E53F81
:1036F000FE822B654715F73F0000E0C00000E04068
:103700000000E0BFEF39FAFE422EE63F1CB5002470
:103710000094FFF777FC1CBD01F000428B1AA3F167
:103720006051B1F5801F0ADBB1F17F6F1FD242EA11
:10373000C102C10071F1004142EB507070470B159E
:10374000C3F10903212B10D2890241EA9051800272
:103750000128494141F0004121FA03F0C3F120035F
:10376000994071F1004150417047100070476FF06F
:10377000000013EB103F5CBF000E42EAC0507047E0
:1037800090EA010F7EF56AAF81F00041421A3CBF1A
:10379000801A89184FF0004CC0F3C752FF2A24D07A
:1037A000C1F3C75313B3D21AD2F1190327DD4CEA80
:1037B00001214CFA03F321EA0303D140C20D4CEA84
:1037C0000020401834BF20EA0C004CEA5000D2051B
:1037D00053EA006373EB0C0C52EB1020420012F121
:1037E000807F38BF7047C00DC0057047490212BFC7
:1037F0009A4200EB5120F8E7D2F11703D9D5704770
:1038000070B44FF0004591EA030F40F129846B40FA
:10381000841A71EB030604D26E40001BB1411219E9
:1038200073414FF4001C1CEB410F34BF7CEB43068B
:1038300083E00C0DA4EB1356362E00F37C80012E92
:1038400045EAC32341DC43EA525312BFD20292023B
:103850005B08240545EAC12141EA5051D2EBC02062
:10386000994125D407D1B0FA80F610FA06F162D05A
:103870000020203608E0B1FA81F6B140C6F12002FE
:1038800020FA02F21143B0404FEAF474B4EB46540C
:1038900034F001064FEA74040AD8D6F50016760D06
:1038A00004F00044F04061FA06F25040F140484014
:1038B000C00A40EA415021F0004128BF5FEA5005AC
:1038C00050F1000044EBD12135E0DB0A45EAC1218B
:1038D000C90AB6F120050EDD42EA0242120CC5F11A
:1038E000200603FA06F6EB4042EA06056D429841CF
:1038F00061F100010DE062FA06F5F240554063FA0D
:1039000006FC82EA0C02F3405A406D42904161EBA2
:10391000030111F4801F05D1641E620502D06D0001
:103920004041494121F48011430875F1004350F1B1
:10393000000041EB045170BC70471CEB410F15D2E5
:1039400023F0004352EA43060BD04FEA4C0CBCEB89
:10395000410F04D80C0D661E342EB7DDEBE7801A3C
:10396000994150EA410608BF0021E4E708BF1CEB7B
:10397000430F28BF6FF00001DDE7000062F30F2264
:1039800062F31F42401810F0030308D0C91A1FD376
:10399000DB0748BF00F8012D28BF20F8022D1300D7
:1039A00030B414461546103928BF20E93C00FAD837
:1039B000490728BF20E90C0048BF40F8042D8900C2
:1039C00028BF20F8022D48BF00F8012D30BC7047F9
:1039D000C91818BF00F8012DCB0728BF00F8012D2A
:1039E00070470000C2175040801AB0FA80F10AD028
:1039F0008840D1F19D01D20742EAC151020672F11D
:103A0000004241EB1020704740F2FF7C0B0D4DD07F
:103A1000634566D230B421EA035141F4801103F2C8
:103A2000FD3C5FEA5C0C01D300184941890041EA82
:103A3000907180004FF440140023E202D50AB1F5E2
:103A4000100107D46D081DD2091B641900184941E3
:103A5000491BF7D56D080AD20919641B00184941A2
:103A6000491BEFD56D08F7D301E0520817D0C018F5
:103A700061419B1AAC4100184941801AA941F4D414
:103A800052080AD0C01AA1419B186C410018494144
:103A9000801AA941E9D45208F4D15B1C6C41610839
:103AA0004FEA330001EB0C5130BC704750EA010380
:103AB000FBD030B4B1FA81F311B9B0FA80F41B191C
:103AC0000B3BB3F120042FBF00FA04F19940C3F17E
:103AD000200420FA04F438BF21439840D3F10103B5
:103AE0009DE7634514BF50EA410CDEE711F5801FE6
:103AF000DBD8D943AFF30080704700002DE9FE4CBE
:103B0000044658004015401C0D463FD06800401543
:103B1000401C3BD0C80F1ABF25F0004508260026E0
:103B2000D80F1CBF23F0004386F00606190008D505
:103B300000204FF0004B801A6BEB030BCDE9000B1C
:103B400001E0CDE900232900204605D500274FF0EC
:103B5000004B381A6BEB0101DDE900AB8B4509DC4A
:103B600001DB824506D21046194622462B46FFF756
:103B700025F93AE022F0000033F0004108BF0028A8
:103B800035D020462946FFF719F930E048004015A6
:103B9000401C04D1090302D02046294630E05800D9
:103BA0004015401C04D1190302D01046194627E0E5
:103BB00058004015401C09D1190307D16800401571
:103BC000401C03D1290308BF0C4901D0002000216B
:103BD000EE0F18BF0826DA0F18BF86F006066A0037
:103BE0005215521C03D12B0301D186F00206324636
:103BF00003B0BDE8F04C00F0C7BC00000000F03F8F
:103C000003B0BDE8F08C0000010049B2002908D4DF
:103C1000012210F01F018A405A4940B2400941F880
:103C20002020704770B400230024574D2A80574D40
:103C30002D88ADB2944207D215F4706F04D0544E63
:103C400036880E70491C641C934208D215F00F058B
:103C5000082D04D205784F4E3580401C5B1C9442E1
:103C6000E5D19342E3D15FF0402000888007FAD588
:103C700070BC70474FF480604749088070474FF42C
:103C80008060464908807047402045490880704759
:103C9000402044490880704710B50400002C1DD016
:103CA0000A2000FB04F0404988420DD24FF4827094
:103CB00044433E4804603E48052101600168C90351
:103CC000FCD50021016009E020004008FFF7E4FF77
:103CD00014F0010010EB5400FFF7DEFF10BD354873
:103CE00000687047012034490860002031490860AD
:103CF0000120704780B54FF6FF7030490880304989
:103D00000880304908803048018851F04001018026
:103D10004020234908802D4801688909890151F014
:103D2000150101602A48016831F4404101602948C9
:103D3000018851F48061018000202749088044F205
:103D400043302649088001200F4908802448018813
:103D500051F40041018009202249086001201649E0
:103D600008600120FFF750FFFFF789FFFFF78CFF86
:103D7000002002BD01201049086001200D490860A3
:103D80007047000000E100E0184000402040004083
:103D900004400040084000405C00024058000240DF
:103DA000980002409C0002409DD8090014E000E009
:103DB00010E000E0180C002090C004400800024011
:103DC0004800024088000240840002400000024097
:103DD00040000240440002400C40004010400040BF
:103DE0000C00024080C0044040EA010C1CEB0C0FA8
:103DF00007D0884205D14FEA400C1CF1807F98BF64
:103E000080427047D2B2203A22BF00FA02F100206D
:103E100070475242D041D2F1200291404140D040FF
:103E20009040414070470000CB17C018594158409E
:103E30005940DB07B1B1B1FA81F241409040C2F183
:103E4000200261FA02F181EA000018BF40F001008F
:103E500002F19D01020643EAC15172F1004241EBB9
:103E60001020704758B1B0FA80F29040C2F19D0224
:103E7000010643EAC25271F1004142EB1020704743
:103E80004FF0807C1CEB400F94BF1CEB410F05E012
:103E900040EA010C1CEB0C0F01D28142704718BFA5
:103EA0008842704710B5144600F002F8226010BD39
:103EB000C1F30A5343B14A0012F5001F28D2A3F2FE
:103EC000FE32A1EB0251704750EA410C20D001F0C4
:103ED000004C31EA0C01B1FA81F204BFB0FA80F370
:103EE000D2180B3AB2F120032CBF00FA03F1914033
:103EF00041EA0C013EBFC2F1200C20FA0CF3194339
:103F00009040524240F2FD33D21A01EB0351704708
:103F100000227047124254D440F2FF7C1CEA115335
:103F20000FD0634531D09B1863453CBF01EB025174
:103F3000704701F0004141EA0C510020AFF30080CE
:103F4000704750EA410320D001F0004C91EA0C0187
:103F50001CD0B1FA81F30B3B9A420DD9D21A994089
:103F600051EA0C01C3F1200C20FA0CFC614498408A
:103F7000531C40F2FF7CD7E7914041EA0C01C2F1AB
:103F8000200C20FA0CF3194390407047B0FA80F3EC
:103F90001533202BE0D3202AEED3203A203B9A423F
:103FA00009D9D21A00FA03F141EA0C010020531C8E
:103FB00040F2FF7CB8E700FA02F141EA0C01002070
:103FC0007047524240F2FF7C1CEA11530DD063450A
:103FD000DBD0B2EB030C3CBFA1EB025170470CF1FC
:103FE000010221EA035141F4801150EA410CCCD086
:103FF00001F0004C352A27DC30B481EA0C01B2F123
:10400000200309DAC2F12003044601FA03F5D04087
:104010002843D1409C400CE0C3F12002450020FA27
:1040200003F418BF44F0010421FA03F091400C435B
:10403000002174F1004550F1000051EB0C012442C5
:1040400030BC7FF47BAF70476146002076E700000C
:1040500070B44FF0004591EA030F7FF5D9AB6B4088
:10406000841A71EB030603D2001BB141121973418C
:104070004FF4001C1CEB410F34BF7CEB430442E0C7
:104080000C0DA4EB1356352E4FDC45EAC323DB0A97
:1040900045EAC121C912B6F120050DDD63FA05F626
:1040A000EB4086EA0305124218BF45F00105C0182F
:1040B00051F100010CD213E062FA06F5F2405540CE
:1040C000F3415A40B340F3405A408018594107D356
:1040D00049085FEA30005FEA350528BF45F0010571
:1040E00001F58011420875F1004250F1000041EBEA
:1040F00004514E0016F5001F70BC38BF70470020F9
:10410000090D090570471CEB410F10D252EA430616
:104110000BD0BCEB410F05D80C0DAB43661E342E03
:10412000B6DD02E0AB438018594170BC704770BCEB
:1041300070470000C11768B14840401AB0FA80F2D9
:104140009040D21CC907C2F5846241EA025202EBD8
:10415000D02140057047000090420CD141EA030C89
:1041600050EA4C0C07D0994205D14FF4001C1CEBCF
:10417000410F38BF894270474FF4001C1CEB410FC0
:1041800094BF1CEB430F09E041EA030C50EA4C0CCE
:1041900052EA0C0C03D2994208BF9042704714BFF8
:1041A0008B42824270470000C1F30A5340F2FE3254
:1041B0009B1A14DDD3F120034FEAE17208DDC90236
:1041C00041EA505141F00040D840801850407047BB
:1041D00003F2E13010B1D24382F00040704700207A
:1041E000704700004FF4001C1CEB410F94BF1CEB08
:1041F000430F09E041EA030C50EA4C0C52EA0C0C64
:1042000003D28B4208BF8242704714BF994290424A
:10421000704700002DE9F04D04460D46680040153A
:10422000401C84B016461F461BD024F0000035F019
:10423000004108BF002814D078004015401C10D061
:1042400026F0000037F0004108BF002809D02900FF
:1042500040F1818000224FF00043101B63EB01010D
:1042600079E068004015401C02D1290340F06081CC
:1042700078004015401C01D1390347D137F0004385
:1042800008BF002A06D168004015401C3ED1290312
:104290003CD10BE078004015401C0ED139030CD105
:1042A00068004015401C31D129032FD1AFF30080A5
:1042B0004FF0FF306FF000413CE124F0000035F09A
:1042C000004108BF002824D1394648000C9A400D0F
:1042D000121860BB26F0000037F0004108BF00282C
:1042E00005D00C9A3946FFF715FE06460F4626F014
:1042F000000437F0004508BF002C05D078004015B9
:10430000401C03D1390301D1AFF300803046394658
:1043100010E168004015401C1BD1290319D13B4610
:104320002046294604B0BDE8F04DFEF775BC002AD2
:10433000D0DD40F2FF70824206DB804907F0004387
:10434000002643EA0107D2E76FF31E5141EA025704
:10435000CDE700200AE00022794B002B44BF4FF04C
:10436000004060EB03039942104602DA07F0004177
:10437000E0E07449002944BF4FF0004363EB0101C2
:104380002B00224604D54FF0004B821A6BEB03033F
:10439000994209DC01DB904206D2AFF30080674905
:1043A00007F000431943C5E06748684922462B4699
:1043B000FEF732FC664B01F0004213430022FFF788
:1043C0001FFAFFF7F1FE8046FFF7B4FE82468B46E8
:1043D0004FF078405F4952465B46FEF71DFC0246AF
:1043E0000B4620462946FFF733FE04460D465A4841
:1043F0005A4952465B46FEF70FFC02460B462046E2
:104400002946FFF725FE0D4625F000410022544BBA
:10441000FFF7B2FE044602D234463D4652E0224641
:104420002B462946FEF7F8FB82468B464D484E49FF
:1044300052465B46FEF7F0FB4C4A4D4BFFF7E0F966
:1044400052465B46FEF7E8FBCDE902015246494879
:1044500049495B46FEF7E0FB484A494BFFF7D0F974
:1044600052465B46FEF7D8FB0022394BDFF814B109
:10447000FFF7C6F922462B46FEF7CEFB04460D4653
:10448000DDE9020122462B46FFF7BAF900225B461E
:10449000FFF7B6F9CDE900012246DDE902012B461E
:1044A000FFF7D6FD00225B46FFF7AAF902460B464E
:1044B000DDE90001FEF782FC32463B46FEF7ACFB2D
:1044C00004460D460C9800EB080229464800400DB2
:1044D00002EB000311D0002B0FDD40F2FF7083428E
:1044E00006DB164905F00043002443EA010510E00D
:1044F0006FF31E5141EA03550BE024F0000035F044
:10450000004108BF002804D02946FFF703FD0446F8
:104510000D4624F0000235F0004308BF002A05D004
:1045200068004015401C03D1290301D1AFF300807E
:104530002046294604B0BDE8F08D00000000F07F61
:1045400000C89CC000C89C40FE822B654715F73F01
:104550000000E03F422EE63FF2E4D5BCE7E84B3EE8
:104560000000903C112E5781A03F503F5843128CC1
:104570008F71BC3F4BE8A541B752013F0BBDF3DA49
:10458000E8708C3F0000F03F2DE9F04D5FEA010834
:10459000044605D500264FF00047301A67EB0101AD
:1045A0000026664F04D54FF00043B61B63EB0707A8
:1045B000B94208BFB042154603D1614CDFF884818F
:1045C0009FE061496148002904D54FF00043301A4B
:1045D00063EB01015FEA0803224604D54FF0004770
:1045E000B21A67EB0303994220DC01DB90421DD233
:1045F000574E584F32463B4620464146FEF70CFB8D
:104600000022554BFFF7FCF882468B4632463B466C
:1046100020464146FFF7F4F802460B4650465946FD
:10462000FEF7CCFB0446884645F0010500225FF00A
:10463000795328F00041204608D54FF00047921AE0
:1046400077EB030302D5101A67EB01018B4258DCAC
:1046500001DB824255D22246434620464146FEF7C0
:10466000DBFA06460F4632463B4620464146FEF7F9
:10467000D3FA82468B463948394932463B46FEF7E3
:10468000CBFA384A384BFFF7BBF832463B46FEF7C9
:10469000C3FA364A364BFFF7B3F852465B46FEF78D
:1046A000BBFA22464346FFF7ABF80446884631483A
:1046B000314932463B46FEF7AFFA304A304BFFF7FE
:1046C0009FF832463B46FEF7A7FA2E4A2E4BFFF7DD
:1046D00097F832463B46FEF79FFA2C4A2C4BFFF7E1
:1046E0008FF832463B46FEF797FA0022134BFFF74E
:1046F00087F802460B4620464146FEF75FFB04461C
:104700008846A80748BF88F0004815F007000CD07D
:10471000204979447E3101EBC0024346D2E90001D1
:104720002246FFF76DF804468846280747BF88F001
:104730000041204620464146BDE8F08D0000F03F94
:10474000182D4454FB21E93F1426D13F56CD9E5EDF
:10475000AA4C58E87AB6FB3F0000F0BF845D5713BF
:104760004B57B03FB2934C19ED5EE43FBEDE02B949
:104770000240F83FDE39028FC7C0743F8AAB128314
:10478000000CC83F24D7E508B6D8F03F0F34580EC8
:104790005895FD3F4C2900002DE9F0439FB000BF24
:1047A00065A6269CDFF8B48A8DF83B400291002470
:1047B0000B944FF0FF37044691461D460AE019F866
:1047C000011B0298A0470028029000F0A1800B98DE
:1047D000401C0B9099F8000050B12528EFD1002122
:1047E0000022059106920791089209910A9203E02E
:1047F0000B98A5E041F0010119F8010F2028F9D02C
:1048000023280CD02B2804D02D2805D0302809D0FF
:1048100080E041F00201EFE741F00401ECE741F0F4
:104820000801E9E741F01001E6E70D920AE00D9872
:10483000404505DA00EB800002EB4002303A0D9271
:1048400009F1010999F80020A2F130000A28EED3FD
:1048500099F800002E2818BF0C9726D119F8010FDF
:104860002A2808D12868286009F1010950F8042B8A
:1048700028600C9219E02D280CBF09F101090020D5
:1048800000220C920BE040B90C9A424505DA02EB8B
:10489000820203EB4203303B0C9309F1010999F8C2
:1048A0000030A3F130020A2AEDD3ADF838103046BB
:1048B00099F8001000F06AFE08B119F8010B8DF8A4
:1048C0003A009DF83A00682805D199F80000682858
:1048D0000CD1622106E06C2804BF99F800006C2816
:1048E00004D171218DF83A1009F1010910A8049042
:1048F0002A4619F8013B6946204600F061F838B9AC
:1049000010AA6946204600F08FF900287FF562AFB3
:10491000384615E02A2888D12A682A6052F8040B04
:104920002A6000280D9003D540420D9041F004010B
:1049300009F101098CE70000686A6C747A4C000088
:104940001FB0BDE8F083622820D0682811D06A2803
:1049500003D06C2827D0712825D10868C01D20F00D
:1049600007000860D0E900230830086019461046A7
:104970007047002A0A680A60106803D0121D0A6096
:1049800000B217E0121D0A6080B217E0002A0A6820
:104990000A60106803D0121D0A6040B20AE0121DBE
:1049A0000A60C0B20AE0002A0A680A60106803D0F0
:1049B000121D0A60C1177047121D0A60002170475E
:1049C00070B51C460D46B4F125002E69114600F065
:1049D00019811C3868D0001F022865D9133842D0CD
:1049E000093861D0801E16D0401E1ED0401E0228FD
:1049F0005AD9001F19D0401F00F08180401E32D0CC
:104A0000401E00F0CB80C01E00F0DA80801E2AD04D
:104A1000C01E28D0FCE06869421C6A610A680A600E
:104A200052F8043B0A603354FCE095F83A00012246
:104A3000FFF789FFC5E90001002904D56869411C19
:104A400069612D220DE0288F810704D56869411C1A
:104A500069612B2205E0C00721D56869411C6961A5
:104A6000202232541BE095F83A000022FFF76BFF3A
:104A7000C5E9000195F83800010710D5D5E90023F4
:104A8000002B08BF002A0AD044F02000782806D165
:104A9000686930213154401C421C6A6134542146FB
:104AA00068693044E86087E00868C01D20F00700AE
:104AB0000860D0E9002308300860C5E90023D5E983
:104AC0000001C80F04D06869411C69612D220DE006
:104AD000288F810704D56869411C69612B2205E094
:104AE000C00704D56869411C696120223254686995
:104AF0003044E8602146284600F0C4F992E005F110
:104B00003A02507820B14FF0FF340FF6202062E0D7
:104B10001078622808D0682824D06A2812D06C281F
:104B20002ED071280ED02BE00A680A6052F8040BD0
:104B30000A6020B94FF0FF340FF608204BE0E96A15
:104B400001706FE00A680A6052F8040B0A6020B92D
:104B50004FF0FF340FF6EC103DE0EA6AD317C0E9DE
:104B600000235FE00A680A6052F8040B0A6020B96B
:104B70004FF0FF340FF6CC102DE0E96A018051E0D0
:104B80000A680A6052F8040B0A6020B94FF0FF343B
:104B90000FF6B0101FE0E96A016043E00A680A609E
:104BA00052F8040B0A60002120F0000221F0FF33CC
:104BB000C5E90023EE607821284600F0BBF831E01B
:104BC0000868086050F8044B0860EC603CB94FF08E
:104BD000FF340FF6881000F0E5FC201A70BD2E6B34
:104BE000002E04D5204600F0FDFC044608E03246C5
:104BF0000021204600F012FD002814BF041B34469B
:104C0000AC610FE06869411C69612522325409E0FA
:104C10006969481C686125227254210002D0431C36
:104C20006B613454002070BD2DE9FC410F460646EF
:104C300090467A6B7869396ABC6A121AB869521A56
:104C4000796A121AF869521A121A97F83800141B66
:104C500041070FD42020002C8DF800000ADD2546E6
:104C600001236A463946304600F048FC00285DD1F1
:104C70006D1EF5D17B6942463946304600F03EFC58
:104C8000002853D130208DF800003D6A002D09DD49
:104C900001236A463946304600F030FC002845D1F1
:104CA0006D1EF5D1BB69FA683946304600F026FC26
:104CB00000283BD130208DF800007D6A002D08DDF2
:104CC00001236A463946304600F018FC70BB6D1E61
:104CD000F6D1F868B969FB6942183946304600F0E8
:104CE0000DFC18BB30208DF80000BD6A002D08DDDA
:104CF00001236A463946304600F000FCB0B96D1E0B
:104D0000F6D197F8380041070DD52020002C8DF8FA
:104D1000000008DD01236A463946304600F0EEFB0C
:104D200020B9641EF6D10020BDE8F6814FF0FF30B7
:104D3000BDE8F6812DE9FC4307466F293E6908BFAF
:104D4000082405D041F02000782814BF0A2410243C
:104D50003C25D7E90023642918BF69299046994664
:104D600005D1002B03D5D8F1000869EB4909B9F149
:104D7000000F08BFB8F1000F1FD1386BE8B9082C3D
:104D80004CD197F83800010748D530203B2586F8EC
:104D90003B0043E000280ED597F8380000F01400DF
:104DA000102808D17B6B7969386A5B1A1B1A9A1A2A
:104DB000002AC8BF3A62BDE8F3838DF80010404670
:104DC00049462246E31700F055FC3032D0B26D1E42
:104DD0003A28019504DB9DF80000A0F151018A18E2
:104DE0007255404649462246E31700F043FC804690
:104DF0005FEA010908BFB8F1000F03D0F868711924
:104E00008842DCD3082C09D197F83800010705D572
:104E1000705D302802D06D1E30207055C5F13C0207
:104E2000BA617119F960386B8242B3DA821A3A6258
:104E30004FF6EF70398F01403987BDE8F3832DE9D4
:104E4000D04306460F4614464FF00008DFF8109492
:104E500012E0E00707D542464B4630463946FDF79B
:104E6000DBFE06460F464046494642464B46FDF7A6
:104E7000D3FE641080468946002CEAD1304639467C
:104E8000BDE8D0832DE9F84F05468A464AF0200454
:104E90008EB0D5E90089612C02AE09D0286B0028BC
:104EA00048BF062003D408BF672C01D10120286326
:104EB000D5E900014A005215521C0DD10B030BD04D
:104EC000AAF1610103201A29A86102D20FF2A86198
:104ED00010E00FF2A8610DE04A005215521C0ED1ED
:104EE0000B030CD1AAF1610103201A29A86116D382
:104EF0000FF29061E8680322FDF7AEFAC0E1CDE958
:104F00000C01DDE90C2323F00043B3F5801F0DD223
:104F10000027002B08BF002A019703D111E00FF2F0
:104F20006061E7E701AAFEF7BDFF0AE0CD48CE4980
:104F300000EB1350DDE90C2301900B40CB491046E8
:104F40001943C5E90001612C0DD1E86830210170D9
:104F5000821CBAF1610FEA600CBF782158214170C0
:104F60006869801C6861D5E90001CDE90C01DDE9C3
:104F70000C2333F0004104BF0028002300F04881D7
:104F8000612C40F0A080286B494600284CBF4FF0B0
:104F9000210B00F1010B404600220023DDE90C89C2
:104FA000FFF7EAF801990BF1010738BF89F00049D2
:104FB000091F002F01918DF808200DF1090040F321
:104FC0003581A94900910646404649460022002302
:104FD000FFF708F980F029814800400D00F11C021C
:104FE00011D0002A0FDD40F2FF739A4205DBA04981
:104FF00009F000400143002011E0009B194041EA04
:10500000025140460BE028F0000039F0004108BF93
:1050100000280FBF49461C224946FEF77BFF804609
:105020008946FFF7C1F8FF1F002F044609DDFFF78F
:1050300081F802460B4640464946FFF709F880468C
:105040008946F01D072104E004F00F0200F8012D4D
:105050002411002C01DD491EF6D5491E5CBF00223B
:1050600000F8012DF9D5DCE00020194602AA0A4417
:1050700000E05B1E12F80149491E8442F9D00F2856
:1050800004D10DF10900425C521C4254002904D5A0
:105090000198001D02AE5B1C0190581E0CD4311803
:1050A000AAF13A040A783032D7B23A2FA8BFA21830
:1050B000401E01F80129F5D5286B002840F1A78092
:1050C000591E2963A3E001996A4A47F29750414368
:1050D00091FBF2F2019229F00046D2F1070204DDC1
:1050E00040463146FFF7ABFE0AE0524200206249DB
:1050F000FFF7A5FE02460B4640463146FDF75EFE31
:105100008046662C286B06BF019F0A3706273F188A
:10511000142FC8BF142730208DF8080089460DF1E0
:10512000090000E03046002F34DD0646404649467F
:1051300000F0B8FB01460A4606F1080304200A26DF
:10514000B2FBF6F606EB860EA2EB4E02303203F807
:10515000012C0A22B6FBF2F202EB820EA6EB4E06FF
:105160003036401E03F8026DE9D1083F002F03F1ED
:105170000806D7DD0846FDF741FD02460B464046CE
:105180004946FEF765FF00223C4BFDF745FD804692
:105190008946CBE70DF10901401A0DF1090604E03B
:1051A0000199491E401E0191761C31783029F7D0B3
:1051B000662C02D10199491C03E0652C0CBF01212A
:1051C00000212B6BCB189842B8BF431E002B1ED476
:1051D000834204DAF05C3528A8BF392000DA302099
:1051E0001946721E02EB010800E05B1E18F80199D7
:1051F000491E8145F9D0392802D1705C401C705499
:10520000002904D50198401C16465B1C01900198AA
:1052100000B200901BB232465146284600F034F8E6
:105220002EE0C61D002F3FF7CFAE30460DF109012D
:10523000401A03465845C8BF5B46002B0DF10906CE
:105240003FF53AAF8342BFF60FAF0DF10900C15CE5
:1052500007297FF709AF0F2007E70000CBCCCC0C64
:105260000000244002FCFFFFFFFF0F800000E03F32
:105270000000F07FA08601000000F03F84D7974136
:105280000FB0BDE8F08F00002DE9FC43054683B068
:105290001F46D5F83080002F164602DC5FF001076C
:1052A000B9A6894649F02000BDF93040662808BFFC
:1052B000641C17D0672840F0888014F1040FC0F2F6
:1052C0008A80444580F2878095F83800641C010785
:1052D00002D44745B8BFB84620B2B8EB000848BF73
:1052E0004FF000080FFA84F9E868A969B9F1000FD6
:1052F00027DC4A1C30234354B8F1000F03DC95F837
:105300003800010703D5E9682E208854521C18EB99
:10531000090FB8BFC8F1000424B260426862A0441B
:10532000B845AA61B8BF4746EB68A8693FB2EF61CC
:105330003A4631461844FDF78FF8A8EB0700A862FB
:10534000C5E022B29742084419DA3A463146FDF7E1
:1053500083F8A8693818A9EB0707B8F1000FA8610E
:105360006F6203DC95F838100A0705D5EA682E212C
:105370001154E869401CE861C5F82880A7E031466F
:10538000FDF76AF8A8693F1BB8F1000F484403DC39
:1053900095F838100A0703D5EA682E211154401CED
:1053A000A86138B28045EB68A869B8BF47463AB2F1
:1053B00006EB09011844FDF74FF8A9693FB27918C7
:1053C000A8EB0707A9616F6281E0B9F1610F16D1FF
:1053D0004FF0700918E0474504DA95F838100A07CD
:1053E00058BFB846B8F1010848BF4FF00008B9F1FE
:1053F000670F14BF4FF045094FF0650904E0B9F19C
:10540000410F08BF4FF05009A969EB68481CA8611B
:10541000B8F1000F16F8012B5A5403DC95F8381038
:105420000A0719D5EA68431CAB612E211154B8F163
:10543000000F11DD7F1E38B231468045EE68B8BFDF
:1054400047463AB2F018FDF707F8A8693FB2381896
:10545000A861A8EB07006862E868A9690844002C05
:1054600080F8009003D42B224270811C03E02D2190
:1054700041706442811C00206A460AE023460A24E7
:1054800093FBF4F404EB8406A3EB460302F8013B20
:10549000401C24B2002CF1DC012806DC49F020027B
:1054A000652A04BF302201F8012B48B9302001F8E9
:1054B000010B07E0401E1DF80030303301F8013BBE
:1054C0000028F7DCEA68A8691044091AE96195F830
:1054D000380000F0140010280DD16A69A969686AC3
:1054E0008A18E9698218A86A8A188218686B824249
:1054F000BCBF821A2A6205B0BDE8F083F8B5054644
:105500000E4617461C46002074B117F8011BB06800
:10551000A847B06030B1F06A401CF0620020641E01
:10552000F3D1F2BD4FF0FF30F2BD00007072696E32
:1055300074665F733A20256E20646973616C6C6FCA
:10554000776564007072696E74663A2062616420E7
:10555000256E20617267756D656E74007072696E7C
:1055600074665F733A2062616420257320617267FC
:10557000756D656E740000006E616E004E414E00E8
:10558000696E6600494E460030000000C9B20278DC
:105590008A421AB11CBF10F8012FF9E718BF00208A
:1055A0007047000080B500B906A005490B681BB123
:1055B00022220021984701E000F088F9222002BD54
:1055C0001C0C0020636F6E73747261696E742068C6
:1055D000616E646C65723A20626164206D657373FC
:1055E0006167650000F10103810704D010F8011B19
:1055F000820781B1FAD10268A2F10131914311F021
:10560000803104BF50F8042FF6E709BAB1FA81F1EE
:1056100000EBD100401CC01A70470000C9B28307DC
:1056200006D0521E22D310F8013B9942F7D11FE059
:10563000083A13D302F1040241EA012141EA01418F
:1056400050F8043B121F21BF4B40A3F1013C2CEA50
:10565000030C1CF0803FF3D0C9B2001F083210F8D1
:10566000013B521E28BF91EA030FF8D818BF012052
:10567000401E7047BBBBE1B1B2F5803F80F07E8039
:10568000022A1ED98C46B1FBF2F102FB11C31B04A6
:1056900043EA1043B3FBF2FC02FB1C3380B240EA46
:1056A0000343B3FBF2F002FB103240EA0C4000234C
:1056B0007047022A05D98446B0FBF2F002FB10C203
:1056C00070474AB105D100F0010249085FEA300095
:1056D000704700220023704700F0FCB80B00020066
:1056E000002100207047904271EB030CF6D3B3F514
:1056F000803F2FD2F0B5B3FA83F7B1FA81F4A7F166
:105700000F0E3D1B5340CEF1200602FA0EF2F3417C
:105710005340B5F10F0746D80F3C2C444140C4F12B
:105720002006A040F1414140B1FBF3F603FB161106
:10573000A2FB0645001BA94102D2761E80185941E2
:1057400080EA010221FA0EF362FA0EF200215A40B9
:105750003046F0BD30B4B1FBF3FC03FB1C11A2FBDF
:105760000C45001BA94103D2ACF1010C8018594132
:1057700030BC02460B46604600217047B2F1807F84
:1057800065D3F0B5B2FA82F7B1FA81F4C7F10F062A
:105790003D1B22FA06F307F1110EF24120355A4063
:1057A000B5F10F07B8D94140C4F12006A040F1413E
:1057B0004140B1FBF3FC03FB1C11A2FB0C45001B99
:1057C000A94103D2BCF1010C801859410F2F12D30B
:1057D0000F3FC90341EA5041B1FBF3F603FB161139
:1057E000A2FB0645D4EBC030A94102D2761E801838
:1057F000594146EACC3C07B34140C7F12006B840C6
:10580000F1414140B1FBF3F603FB1611A2FB064543
:10581000001BA94102D2761E8018594180EA01027C
:1058200021FA0EF3C7F1200462FA0EF20CFA07F027
:105830005A402CFA04F13043F0BD80EA010221FA0B
:105840000EF3002162FA0EF260465A40F0BD8C461B
:10585000B1FBF2F102FB11C31B0243EA1063B3FB7D
:10586000F2FC02FB1C331B024CEA002043EA1063EB
:10587000B3FBF2FC02FB1C331B024CEA002043EAA0
:105880001063B3FBF2FC02FB1C331B024CEA00204A
:1058900043EA1063B3FBF2FC02FB1C324CEA00202B
:1058A00000237047400D491840EA81200CD2490D71
:1058B000A1F58061491C40F0004005DBD1F11F01DA
:1058C00054BFC840C017704700207047012000F047
:1058D00003B800007047000020210903263118207A
:1058E000ABBEF9E7002804D0DFF8141901600020EE
:1058F00001E07FF00100704718B5A5B0002806D080
:1059000002283CD02CD304284ED03ED365E00A2098
:10591000FCF76CFB0B2802D37FF008005EE0DFF899
:10592000E04894F8B403002802D17FF0630055E00A
:1059300001208DF890000020139000201490E06961
:10594000A16AFCF709FFFCF771FEC01E1C90012044
:10595000209013A8FCF742F90020C4F8E4033CE0CF
:105960000A20FCF743FB0B2802D37FF0080035E048
:105970000020FCF7DDF90020FCF7DAF92DE001202A
:10598000DFF87C1881F8E00327E000290BD0DFF86E
:10599000700890F86820012A03D1D0F8B00308609D
:1059A00001E0006B086018E000210120FFF7A4FF70
:1059B0000D2100226C462000FDF7E0FF6846FBF752
:1059C00004FD3C21002204AC2000FDF7D7FF04A811
:1059D000FBF796FEFCF7FBFAFFE7002026B010BDB0
:1059E00030B5C1B000200120FAF7E6FF01208DF8A4
:1059F000080001208DF80A0001208DF80900002020
:105A00008DF8140000208DF8130000208DF811008F
:105A100000208DF8120000208DF80C0000208DF879
:105A20000B0001208DF80D0001208DF80E000020E4
:105A30008DF80F0002A8FBF7C8FCDFF8C457286CEC
:105A40002990686C2A90A86C2B9000208DF8F000AB
:105A500000203990A86D3B9005203E900B203D9092
:105A6000686D3A90002025904FF4C04026904FF486
:105A7000406027904FF48070289002202C900020E6
:105A80008DF8B40000208DF8B50095F86800012865
:105A900010D10020E867E86EC5F8B003E86EC5F8DD
:105AA000800015F1840115F16800FBF789F9D5F83C
:105AB000800002E0286BC5F8B003A969FBF7E7FD99
:105AC0003490E86BDFF83C17FCF746FEDFF8381738
:105AD000FCF740FD5FF07C51FCF7BAFDFCF7A6FD3A
:105AE0003590002036900020379025A8FBF7C5FCA4
:105AF00000201690002017901E201A900020189069
:105B00000020199000201B9000208DF870000120CB
:105B10008DF8710040F28B60ADF872001F20ADF877
:105B2000740000201E900020229001208DF890002B
:105B300001208DF8910002201F900020209000206D
:105B4000219043F2E030239016A8FBF7D9FD012005
:105B5000079001200690E86C0890082100220EAC06
:105B60002000FDF70BFF03200B9001200C9095F80F
:105B700051000A9095F85000099000208DF83500EA
:105B800001208DF8340001208DF83600E86D10906A
:105B9000286E119095F864008DF848000C210022C1
:105BA00013AC2000FDF7EAFE06A8FBF744FE012136
:105BB000DFF85806FBF7D4FB0020FCF708F85FF08D
:105BC0000140FAF71DFE694601A8FAF7E5FE040058
:105BD0000020FAF7F1FE002C13D10120C5F8B8031C
:105BE0006868C5F8BC030198C5F8C8030098C5F8F3
:105BF000C003009A0199D5F8BC03FBF79AFF002077
:105C000000E0200041B030BD30B58FB0002003204F
:105C10000790DFF8EC55286E0C900120E96D891C87
:105C20008840089095F851000A9095F85000099026
:105C300000200B90A869296AFCF78EFD0E9069463A
:105C400007A8FAF7E9FF0120FAF7B6FE4020FBF7B4
:105C5000BEFF4FF47A60FAF7D3FD102003904FF4A3
:105C600080600490022005904FF48170069003A894
:105C7000FBF715FC01210120FBF765FE01214FF424
:105C80008140FBF76DFB4FF44870FAF7B9FD012135
:105C90004FF40140FBF764FB009820F04040FAF716
:105CA000AFFD4CF2801400212000FBF759FB0621C8
:105CB0000720FBF748FE01214FF48140FBF750FB22
:105CC0004FF44870FAF79CFD01214FF40140FBF7B7
:105CD00047FB009820F04040FAF792FD0021200099
:105CE000FBF73EFB002003904FF4C04004904FF4BC
:105CF000406005904FF48070069003A8FBF7CFFB3F
:105D00000020FBF764FFFCF762F901A902A8FAF78B
:105D100043FE04000020FAF74FFEFAF75EFEC5F8D6
:105D2000E803D5F8E8030A30FCF768FF0022DFF843
:105D3000E034FDF743F8DFF8DC24DFF8DC34FCF76F
:105D40006BFF02000B000020DFF8D014FDF736F8DF
:105D5000FDF7E2FCC5F8EC03D5F8EC03A96AFCF703
:105D6000E9FC02D2D5F8EC03A862002C17D1002080
:105D7000C5F8CC03D5F8BC13D5F8C0034118C5F855
:105D8000D0130298C5F8DC030198C5F8D403019A32
:105D90000299D5F8D003FBF7CCFE002000E02000EC
:105DA0000FB030BD38B592B0DFF85444206A03908C
:105DB00094F851000D9094F850000C90012011902F
:105DC000E06D0E90206E0F9094F864008DF8400006
:105DD000606B019000208DF81C0000200490A06DE5
:105DE0000690052009900A200890606D0590A06932
:105DF0000290E06E009094F86800012824D1002001
:105E0000E06700250CE004EBC50010F19001684646
:105E1000FCF710F9694614F16800FAF7D1FF6D1C20
:105E2000606F8542EFD30020E067E06F04EBC000B5
:105E3000D0F89000C4F88800E06F04EBC000D0F800
:105E40009400C4F88C0006E0206B009014F18801E7
:105E50006846FCF7EFF8002013B030BD70B588B08D
:105E600004000D0000200A20FCF7C0F80B2802D324
:105E70007FF0080087E00120009000208DF80500E9
:105E800000208DF8060001208DF8070000208DF815
:105E90000400002002906846FBF705FED84E307DD6
:105EA000012803D096F8B403002803D1FFF77AFF46
:105EB0000020307500210220FBF7DFFD01208DF866
:105EC0000C00022004900220059002200690706AC7
:105ED000079003A8FBF7A5FD5FF0FF30FCF72CF857
:105EE00096F8B403002802D03078012817D1002C8E
:105EF00002D17FF0010046E0002D02D17FF00100C9
:105F000041E029002000FAF734FDFFF769FD002881
:105F100039D1FFF779FE002835D1002030700020FC
:105F200086F8C40316F56E70FBF719FE01208DF894
:105F300004006846FBF7B7FDD6F8B803FBF7EDFDA4
:105F40004FF400410120FBF7FEFF0028F8D00020AD
:105F500086F8D80316F57370FBF701FE01208DF863
:105F600004006846FBF79FFDFDF7BCFE0321B06B04
:105F7000FBF722FA082142F25C30FBF77DF90120A1
:105F800086F8B403002008B070BD80B59C4AD06A82
:105F9000012810DBD2F8E403096810EB9100C2F885
:105FA000E403D2F8E403D16A884204D30020FBF76B
:105FB000BFFE002012E092F8E003012804D1002087
:105FC000FBF7B6FE002009E092F86800002804D034
:105FD0009169D2F88400FBF751FB002002BD2DE946
:105FE000F34F83B0049909688A465FEA9A0A0290DF
:105FF00006000022049B1A6089088A00002310E032
:1060000050F823108903890B40F8231050F823100F
:10601000890305D550F8234081490C4340F82340BB
:106020005B1C9342ECD3002482E0350016F108009B
:10603000070010F108063868FDF7D4FC8046386880
:10604000FDF7D0FC4146FCF785FA80467868FDF7FD
:10605000C9FC81467868FDF7C5FC4946FCF77AFA29
:106060004146FCF7F5FAFCF7F5FBFDF7CDFCFDF733
:1060700053FB81463868FEF75DF802000B00CDE95E
:10608000002378684042FEF755F8DDE90023FDF76C
:1060900035FDFDF741FB80462868FDF7A3FC0700AE
:1060A0002868FDF79FFC3900FCF754FA0700686880
:1060B000FDF798FC83466868FDF794FC5946FCF7A9
:1060C00049FA3900FCF7C4FAFCF7C4FBFDF79CFC65
:1060D000FDF722FB07002868FEF72CF802000B00F2
:1060E000CDE9002368684042FEF724F8DDE900238B
